{
  "abi": [
    {
      "anonymous": false,
      "inputs": [
        {
          "indexed": true,
          "internalType": "address",
          "name": "previousOwner",
          "type": "address"
        },
        {
          "indexed": true,
          "internalType": "address",
          "name": "newOwner",
          "type": "address"
        }
      ],
      "name": "OwnershipTransferred",
      "type": "event"
    },
    {
      "inputs": [
        {
          "internalType": "address[]",
          "name": "tokenAddressesArr",
          "type": "address[]"
        },
        {
          "internalType": "address",
          "name": "userAddress",
          "type": "address"
        }
      ],
      "name": "getBalances",
      "outputs": [
        {
          "internalType": "uint256[]",
          "name": "",
          "type": "uint256[]"
        }
      ],
      "stateMutability": "view",
      "type": "function"
    },
    {
      "inputs": [],
      "name": "multicallAddress",
      "outputs": [
        {
          "internalType": "address",
          "name": "",
          "type": "address"
        }
      ],
      "stateMutability": "view",
      "type": "function"
    },
    {
      "inputs": [],
      "name": "owner",
      "outputs": [
        {
          "internalType": "address",
          "name": "",
          "type": "address"
        }
      ],
      "stateMutability": "view",
      "type": "function"
    },
    {
      "inputs": [],
      "name": "renounceOwnership",
      "outputs": [],
      "stateMutability": "nonpayable",
      "type": "function"
    },
    {
      "inputs": [
        {
          "internalType": "address",
          "name": "newOwner",
          "type": "address"
        }
      ],
      "name": "transferOwnership",
      "outputs": [],
      "stateMutability": "nonpayable",
      "type": "function"
    },
    {
      "inputs": [
        {
          "internalType": "address",
          "name": "_addr",
          "type": "address"
        }
      ],
      "name": "updateMulticallAddress",
      "outputs": [],
      "stateMutability": "nonpayable",
      "type": "function"
    }
  ],
  "bytecode": {
    "object": "0x6080604052600180546001600160a01b03191673c43a7181654639556e4caca1bf9219c14a10640117905534801561003657600080fd5b5061004033610045565b610095565b600080546001600160a01b038381166001600160a01b0319831681178455604051919092169283917f8be0079c531659141344cd1fd0a4f28419497f9722a3daafe3b4186f6b6457e09190a35050565b610907806100a46000396000f3fe608060405234801561001057600080fd5b50600436106100625760003560e01c80630817860414610067578063715018a6146100975780638da5cb5b146100a1578063d1c07028146100b2578063dc71bcf3146100d2578063f2fde38b146100e5575b600080fd5b60015461007a906001600160a01b031681565b6040516001600160a01b0390911681526020015b60405180910390f35b61009f6100f8565b005b6000546001600160a01b031661007a565b6100c56100c036600461056b565b61010c565b60405161008e91906105ef565b61009f6100e0366004610633565b6103ae565b61009f6100f3366004610633565b61042c565b6101006104a5565b61010a60006104ff565b565b60608260008167ffffffffffffffff81111561012a5761012a610655565b604051908082528060200260200182016040528015610153578160200160208202803683370190505b50905060008267ffffffffffffffff81111561017157610171610655565b6040519080825280602002602001820160405280156101b757816020015b60408051808201909152600081526060602082015281526020019060019003908161018f5790505b50905060005b838110156102765760405180604001604052808989848181106101e2576101e261066b565b90506020020160208101906101f79190610633565b6001600160a01b039081168252604051908916602482015260209091019060440160408051601f198184030181529190526020810180516001600160e01b03166370a0823160e01b179052905282518390839081106102585761025861066b565b6020026020010181905250808061026e90610681565b9150506101bd565b50600154604051631296dd2160e11b81526000916001600160a01b03169063252dba42906102a89085906004016106cc565b600060405180830381865afa1580156102c5573d6000803e3d6000fd5b505050506040513d6000823e601f3d908101601f191682016040526102ed9190810190610797565b91505060005b81518110156103a15781818151811061030e5761030e61066b565b60200260200101515160200361036e578181815181106103305761033061066b565b602002602001015180602001905181019061034b91906108b8565b84828151811061035d5761035d61066b565b60200260200101818152505061038f565b60008482815181106103825761038261066b565b6020026020010181815250505b8061039981610681565b9150506102f3565b5091979650505050505050565b6103b66104a5565b6001600160a01b03811661040a5760405162461bcd60e51b815260206004820152601660248201527543616e6e6f74206265207a65726f206164647265737360501b60448201526064015b60405180910390fd5b600180546001600160a01b0319166001600160a01b0392909216919091179055565b6104346104a5565b6001600160a01b0381166104995760405162461bcd60e51b815260206004820152602660248201527f4f776e61626c653a206e6577206f776e657220697320746865207a65726f206160448201526564647265737360d01b6064820152608401610401565b6104a2816104ff565b50565b6000546001600160a01b0316331461010a5760405162461bcd60e51b815260206004820181905260248201527f4f776e61626c653a2063616c6c6572206973206e6f7420746865206f776e65726044820152606401610401565b600080546001600160a01b038381166001600160a01b0319831681178455604051919092169283917f8be0079c531659141344cd1fd0a4f28419497f9722a3daafe3b4186f6b6457e09190a35050565b80356001600160a01b038116811461056657600080fd5b919050565b60008060006040848603121561058057600080fd5b833567ffffffffffffffff8082111561059857600080fd5b818601915086601f8301126105ac57600080fd5b8135818111156105bb57600080fd5b8760208260051b85010111156105d057600080fd5b6020928301955093506105e6918601905061054f565b90509250925092565b6020808252825182820181905260009190848201906040850190845b818110156106275783518352928401929184019160010161060b565b50909695505050505050565b60006020828403121561064557600080fd5b61064e8261054f565b9392505050565b634e487b7160e01b600052604160045260246000fd5b634e487b7160e01b600052603260045260246000fd5b6000600182016106a157634e487b7160e01b600052601160045260246000fd5b5060010190565b60005b838110156106c35781810151838201526020016106ab565b50506000910152565b60006020808301818452808551808352604092508286019150828160051b87010184880160005b8381101561075857888303603f19018552815180516001600160a01b031684528701518784018790528051878501819052606061073582828801858d016106a8565b96890196601f91909101601f1916949094019093019250908601906001016106f3565b509098975050505050505050565b604051601f8201601f1916810167ffffffffffffffff8111828210171561078f5761078f610655565b604052919050565b60008060408084860312156107ab57600080fd5b8351925060208085015167ffffffffffffffff808211156107cb57600080fd5b8187019150601f88818401126107e057600080fd5b8251828111156107f2576107f2610655565b8060051b610801868201610766565b918252848101860191868101908c84111561081b57600080fd5b87870192505b838310156108a5578251868111156108395760008081fd5b8701603f81018e1361084b5760008081fd5b888101518781111561085f5761085f610655565b610870818801601f19168b01610766565b8181528f8c8385010111156108855760008081fd5b610894828c83018e86016106a8565b845250509187019190870190610821565b8099505050505050505050509250929050565b6000602082840312156108ca57600080fd5b505191905056fea26469706673582212209d271815a6de9e8c89c6c07aeb6f9056b735661ca0c78d7927f2defe87d7c8fc64736f6c63430008150033",
    "linkReferences": {}
  },
  "methodIdentifiers": {
    "getBalances(address[],address)": "d1c07028",
    "multicallAddress()": "08178604",
    "owner()": "8da5cb5b",
    "renounceOwnership()": "715018a6",
    "transferOwnership(address)": "f2fde38b",
    "updateMulticallAddress(address)": "dc71bcf3"
  },
  "id": 0
}