{
  "abi": [
    {
      "inputs": [
        {
          "internalType": "address",
          "name": "userAddress",
          "type": "address"
        }
      ],
      "name": "getNativeBalance",
      "outputs": [
        {
          "internalType": "uint256",
          "name": "",
          "type": "uint256"
        }
      ],
      "stateMutability": "view",
      "type": "function"
    }
  ],
  "bytecode": {
    "object": "0x608060405234801561001057600080fd5b5060bb8061001f6000396000f3fe6080604052348015600f57600080fd5b506004361060285760003560e01c8063efd8be6214602d575b600080fd5b604560383660046057565b6001600160a01b03163190565b60405190815260200160405180910390f35b600060208284031215606857600080fd5b81356001600160a01b0381168114607e57600080fd5b939250505056fea264697066735822122067360d044bf2c17bf019f89ecf753aa663ed8647ccbb8fef1a701c8e209741a264736f6c63430008150033",
    "linkReferences": {}
  },
  "methodIdentifiers": {
    "getNativeBalance(address)": "efd8be62"
  },
  "id": 1
}